{
    "_format": "hh-sol-artifact-1",
    "contractName": "AXISRWAOwnershipTokenFactory",
    "sourceName": "contracts/AXISRWAOwnershipTokenFactory.sol",
    "abi": [
        {
            "anonymous": false,
            "inputs": [
                {
                    "indexed": false,
                    "internalType": "address",
                    "name": "tokenAddress",
                    "type": "address"
                },
                {
                    "indexed": false,
                    "internalType": "string",
                    "name": "name",
                    "type": "string"
                },
                {
                    "indexed": false,
                    "internalType": "string",
                    "name": "symbol",
                    "type": "string"
                }
            ],
            "name": "TokenDeployed",
            "type": "event"
        },
        {
            "inputs": [
                {
                    "internalType": "string",
                    "name": "name",
                    "type": "string"
                },
                {
                    "internalType": "string",
                    "name": "symbol",
                    "type": "string"
                },
                {
                    "internalType": "uint256",
                    "name": "initialSupply",
                    "type": "uint256"
                },
                {
                    "internalType": "address",
                    "name": "owner",
                    "type": "address"
                }
            ],
            "name": "createToken",
            "outputs": [
                {
                    "internalType": "address",
                    "name": "",
                    "type": "address"
                }
            ],
            "stateMutability": "nonpayable",
            "type": "function"
        }
    ],
    "bytecode": "0x6080604052348015600f57600080fd5b506122bf8061001f6000396000f3fe608060405234801561001057600080fd5b506004361061002b5760003560e01c806334f359f914610030575b600080fd5b61004a600480360381019061004591906102e1565b610060565b604051610057919061038f565b60405180910390f35b60008085858585604051610073906100e6565b6100809493929190610438565b604051809103906000f08015801561009c573d6000803e3d6000fd5b5090507fcbceb2a71186186f122db5bab7bde42a9ae01fdb01216247c5532f66cea8aaef8187876040516100d29392919061048b565b60405180910390a180915050949350505050565b611db9806104d183390190565b6000604051905090565b600080fd5b600080fd5b600080fd5b600080fd5b6000601f19601f8301169050919050565b7f4e487b7100000000000000000000000000000000000000000000000000000000600052604160045260246000fd5b61015a82610111565b810181811067ffffffffffffffff8211171561017957610178610122565b5b80604052505050565b600061018c6100f3565b90506101988282610151565b919050565b600067ffffffffffffffff8211156101b8576101b7610122565b5b6101c182610111565b9050602081019050919050565b82818337600083830152505050565b60006101f06101eb8461019d565b610182565b90508281526020810184848401111561020c5761020b61010c565b5b6102178482856101ce565b509392505050565b600082601f83011261023457610233610107565b5b81356102448482602086016101dd565b91505092915050565b6000819050919050565b6102608161024d565b811461026b57600080fd5b50565b60008135905061027d81610257565b92915050565b600073ffffffffffffffffffffffffffffffffffffffff82169050919050565b60006102ae82610283565b9050919050565b6102be816102a3565b81146102c957600080fd5b50565b6000813590506102db816102b5565b92915050565b600080600080608085870312156102fb576102fa6100fd565b5b600085013567ffffffffffffffff81111561031957610318610102565b5b6103258782880161021f565b945050602085013567ffffffffffffffff81111561034657610345610102565b5b6103528782880161021f565b93505060406103638782880161026e565b9250506060610374878288016102cc565b91505092959194509250565b610389816102a3565b82525050565b60006020820190506103a46000830184610380565b92915050565b600081519050919050565b600082825260208201905092915050565b60005b838110156103e45780820151818401526020810190506103c9565b60008484015250505050565b60006103fb826103aa565b61040581856103b5565b93506104158185602086016103c6565b61041e81610111565b840191505092915050565b6104328161024d565b82525050565b6000608082019050818103600083015261045281876103f0565b9050818103602083015261046681866103f0565b90506104756040830185610429565b6104826060830184610380565b95945050505050565b60006060820190506104a06000830186610380565b81810360208301526104b281856103f0565b905081810360408301526104c681846103f0565b905094935050505056fe608060405234801561001057600080fd5b50604051611db9380380611db98339818101604052810190610032919061069b565b80848481600390816100449190610951565b5080600490816100549190610951565b505050600073ffffffffffffffffffffffffffffffffffffffff168173ffffffffffffffffffffffffffffffffffffffff16036100c95760006040517f1e4fbdf70000000000000000000000000000000000000000000000000000000081526004016100c09190610a32565b60405180910390fd5b6100d88161011660201b60201c565b5061010d816100eb6101dc60201b60201c565b600a6100f79190610bbc565b846101029190610c07565b6101e560201b60201c565b50505050610cde565b6000600560009054906101000a900473ffffffffffffffffffffffffffffffffffffffff16905081600560006101000a81548173ffffffffffffffffffffffffffffffffffffffff021916908373ffffffffffffffffffffffffffffffffffffffff1602179055508173ffffffffffffffffffffffffffffffffffffffff168173ffffffffffffffffffffffffffffffffffffffff167f8be0079c531659141344cd1fd0a4f28419497f9722a3daafe3b4186f6b6457e060405160405180910390a35050565b60006012905090565b600073ffffffffffffffffffffffffffffffffffffffff168273ffffffffffffffffffffffffffffffffffffffff16036102575760006040517fec442f0500000000000000000000000000000000000000000000000000000000815260040161024e9190610a32565b60405180910390fd5b6102696000838361026d60201b60201c565b5050565b600073ffffffffffffffffffffffffffffffffffffffff168373ffffffffffffffffffffffffffffffffffffffff16036102bf5780600260008282546102b39190610c49565b92505081905550610392565b60008060008573ffffffffffffffffffffffffffffffffffffffff1673ffffffffffffffffffffffffffffffffffffffff1681526020019081526020016000205490508181101561034b578381836040517fe450d38c00000000000000000000000000000000000000000000000000000000815260040161034293929190610c8c565b60405180910390fd5b8181036000808673ffffffffffffffffffffffffffffffffffffffff1673ffffffffffffffffffffffffffffffffffffffff16815260200190815260200160002081905550505b600073ffffffffffffffffffffffffffffffffffffffff168273ffffffffffffffffffffffffffffffffffffffff16036103db5780600260008282540392505081905550610428565b806000808473ffffffffffffffffffffffffffffffffffffffff1673ffffffffffffffffffffffffffffffffffffffff168152602001908152602001600020600082825401925050819055505b8173ffffffffffffffffffffffffffffffffffffffff168373ffffffffffffffffffffffffffffffffffffffff167fddf252ad1be2c89b69c2b068fc378daa952ba7f163c4a11628f55a4df523b3ef836040516104859190610cc3565b60405180910390a3505050565b6000604051905090565b600080fd5b600080fd5b600080fd5b600080fd5b6000601f19601f8301169050919050565b7f4e487b7100000000000000000000000000000000000000000000000000000000600052604160045260246000fd5b6104f9826104b0565b810181811067ffffffffffffffff82111715610518576105176104c1565b5b80604052505050565b600061052b610492565b905061053782826104f0565b919050565b600067ffffffffffffffff821115610557576105566104c1565b5b610560826104b0565b9050602081019050919050565b60005b8381101561058b578082015181840152602081019050610570565b60008484015250505050565b60006105aa6105a58461053c565b610521565b9050828152602081018484840111156105c6576105c56104ab565b5b6105d184828561056d565b509392505050565b600082601f8301126105ee576105ed6104a6565b5b81516105fe848260208601610597565b91505092915050565b6000819050919050565b61061a81610607565b811461062557600080fd5b50565b60008151905061063781610611565b92915050565b600073ffffffffffffffffffffffffffffffffffffffff82169050919050565b60006106688261063d565b9050919050565b6106788161065d565b811461068357600080fd5b50565b6000815190506106958161066f565b92915050565b600080600080608085870312156106b5576106b461049c565b5b600085015167ffffffffffffffff8111156106d3576106d26104a1565b5b6106df878288016105d9565b945050602085015167ffffffffffffffff811115610700576106ff6104a1565b5b61070c878288016105d9565b935050604061071d87828801610628565b925050606061072e87828801610686565b91505092959194509250565b600081519050919050565b7f4e487b7100000000000000000000000000000000000000000000000000000000600052602260045260246000fd5b6000600282049050600182168061078c57607f821691505b60208210810361079f5761079e610745565b5b50919050565b60008190508160005260206000209050919050565b60006020601f8301049050919050565b600082821b905092915050565b6000600883026108077fffffffffffffffffffffffffffffffffffffffffffffffffffffffffffffffff826107ca565b61081186836107ca565b95508019841693508086168417925050509392505050565b6000819050919050565b600061084e61084961084484610607565b610829565b610607565b9050919050565b6000819050919050565b61086883610833565b61087c61087482610855565b8484546107d7565b825550505050565b600090565b610891610884565b61089c81848461085f565b505050565b5b818110156108c0576108b5600082610889565b6001810190506108a2565b5050565b601f821115610905576108d6816107a5565b6108df846107ba565b810160208510156108ee578190505b6109026108fa856107ba565b8301826108a1565b50505b505050565b600082821c905092915050565b60006109286000198460080261090a565b1980831691505092915050565b60006109418383610917565b9150826002028217905092915050565b61095a8261073a565b67ffffffffffffffff811115610973576109726104c1565b5b61097d8254610774565b6109888282856108c4565b600060209050601f8311600181146109bb57600084156109a9578287015190505b6109b38582610935565b865550610a1b565b601f1984166109c9866107a5565b60005b828110156109f1578489015182556001820191506020850194506020810190506109cc565b86831015610a0e5784890151610a0a601f891682610917565b8355505b6001600288020188555050505b505050505050565b610a2c8161065d565b82525050565b6000602082019050610a476000830184610a23565b92915050565b7f4e487b7100000000000000000000000000000000000000000000000000000000600052601160045260246000fd5b60008160011c9050919050565b6000808291508390505b6001851115610ad357808604811115610aaf57610aae610a4d565b5b6001851615610abe5780820291505b8081029050610acc85610a7c565b9450610a93565b94509492505050565b600082610aec5760019050610ba8565b81610afa5760009050610ba8565b8160018114610b105760028114610b1a57610b49565b6001915050610ba8565b60ff841115610b2c57610b2b610a4d565b5b8360020a915084821115610b4357610b42610a4d565b5b50610ba8565b5060208310610133831016604e8410600b8410161715610b7e5782820a905083811115610b7957610b78610a4d565b5b610ba8565b610b8b8484846001610a89565b92509050818404811115610ba257610ba1610a4d565b5b81810290505b9392505050565b600060ff82169050919050565b6000610bc782610607565b9150610bd283610baf565b9250610bff7fffffffffffffffffffffffffffffffffffffffffffffffffffffffffffffffff8484610adc565b905092915050565b6000610c1282610607565b9150610c1d83610607565b9250828202610c2b81610607565b91508282048414831517610c4257610c41610a4d565b5b5092915050565b6000610c5482610607565b9150610c5f83610607565b9250828201905080821115610c7757610c76610a4d565b5b92915050565b610c8681610607565b82525050565b6000606082019050610ca16000830186610a23565b610cae6020830185610c7d565b610cbb6040830184610c7d565b949350505050565b6000602082019050610cd86000830184610c7d565b92915050565b6110cc80610ced6000396000f3fe608060405234801561001057600080fd5b50600436106100b45760003560e01c8063715018a611610071578063715018a6146101a35780638da5cb5b146101ad57806395d89b41146101cb578063a9059cbb146101e9578063dd62ed3e14610219578063f2fde38b14610249576100b4565b806306fdde03146100b9578063095ea7b3146100d757806318160ddd1461010757806323b872dd14610125578063313ce5671461015557806370a0823114610173575b600080fd5b6100c1610265565b6040516100ce9190610d20565b60405180910390f35b6100f160048036038101906100ec9190610ddb565b6102f7565b6040516100fe9190610e36565b60405180910390f35b61010f61031a565b60405161011c9190610e60565b60405180910390f35b61013f600480360381019061013a9190610e7b565b610324565b60405161014c9190610e36565b60405180910390f35b61015d610353565b60405161016a9190610eea565b60405180910390f35b61018d60048036038101906101889190610f05565b61035c565b60405161019a9190610e60565b60405180910390f35b6101ab6103a4565b005b6101b56103b8565b6040516101c29190610f41565b60405180910390f35b6101d36103e2565b6040516101e09190610d20565b60405180910390f35b61020360048036038101906101fe9190610ddb565b610474565b6040516102109190610e36565b60405180910390f35b610233600480360381019061022e9190610f5c565b610497565b6040516102409190610e60565b60405180910390f35b610263600480360381019061025e9190610f05565b61051e565b005b60606003805461027490610fcb565b80601f01602080910402602001604051908101604052809291908181526020018280546102a090610fcb565b80156102ed5780601f106102c2576101008083540402835291602001916102ed565b820191906000526020600020905b8154815290600101906020018083116102d057829003601f168201915b5050505050905090565b6000806103026105a4565b905061030f8185856105ac565b600191505092915050565b6000600254905090565b60008061032f6105a4565b905061033c8582856105be565b610347858585610653565b60019150509392505050565b60006012905090565b60008060008373ffffffffffffffffffffffffffffffffffffffff1673ffffffffffffffffffffffffffffffffffffffff168152602001908152602001600020549050919050565b6103ac610747565b6103b660006107ce565b565b6000600560009054906101000a900473ffffffffffffffffffffffffffffffffffffffff16905090565b6060600480546103f190610fcb565b80601f016020809104026020016040519081016040528092919081815260200182805461041d90610fcb565b801561046a5780601f1061043f5761010080835404028352916020019161046a565b820191906000526020600020905b81548152906001019060200180831161044d57829003601f168201915b5050505050905090565b60008061047f6105a4565b905061048c818585610653565b600191505092915050565b6000600160008473ffffffffffffffffffffffffffffffffffffffff1673ffffffffffffffffffffffffffffffffffffffff16815260200190815260200160002060008373ffffffffffffffffffffffffffffffffffffffff1673ffffffffffffffffffffffffffffffffffffffff16815260200190815260200160002054905092915050565b610526610747565b600073ffffffffffffffffffffffffffffffffffffffff168173ffffffffffffffffffffffffffffffffffffffff16036105985760006040517f1e4fbdf700000000000000000000000000000000000000000000000000000000815260040161058f9190610f41565b60405180910390fd5b6105a1816107ce565b50565b600033905090565b6105b98383836001610894565b505050565b60006105ca8484610497565b90507fffffffffffffffffffffffffffffffffffffffffffffffffffffffffffffffff81101561064d578181101561063d578281836040517ffb8f41b200000000000000000000000000000000000000000000000000000000815260040161063493929190610ffc565b60405180910390fd5b61064c84848484036000610894565b5b50505050565b600073ffffffffffffffffffffffffffffffffffffffff168373ffffffffffffffffffffffffffffffffffffffff16036106c55760006040517f96c6fd1e0000000000000000000000000000000000000000000000000000000081526004016106bc9190610f41565b60405180910390fd5b600073ffffffffffffffffffffffffffffffffffffffff168273ffffffffffffffffffffffffffffffffffffffff16036107375760006040517fec442f0500000000000000000000000000000000000000000000000000000000815260040161072e9190610f41565b60405180910390fd5b610742838383610a6b565b505050565b61074f6105a4565b73ffffffffffffffffffffffffffffffffffffffff1661076d6103b8565b73ffffffffffffffffffffffffffffffffffffffff16146107cc576107906105a4565b6040517f118cdaa70000000000000000000000000000000000000000000000000000000081526004016107c39190610f41565b60405180910390fd5b565b6000600560009054906101000a900473ffffffffffffffffffffffffffffffffffffffff16905081600560006101000a81548173ffffffffffffffffffffffffffffffffffffffff021916908373ffffffffffffffffffffffffffffffffffffffff1602179055508173ffffffffffffffffffffffffffffffffffffffff168173ffffffffffffffffffffffffffffffffffffffff167f8be0079c531659141344cd1fd0a4f28419497f9722a3daafe3b4186f6b6457e060405160405180910390a35050565b600073ffffffffffffffffffffffffffffffffffffffff168473ffffffffffffffffffffffffffffffffffffffff16036109065760006040517fe602df050000000000000000000000000000000000000000000000000000000081526004016108fd9190610f41565b60405180910390fd5b600073ffffffffffffffffffffffffffffffffffffffff168373ffffffffffffffffffffffffffffffffffffffff16036109785760006040517f94280d6200000000000000000000000000000000000000000000000000000000815260040161096f9190610f41565b60405180910390fd5b81600160008673ffffffffffffffffffffffffffffffffffffffff1673ffffffffffffffffffffffffffffffffffffffff16815260200190815260200160002060008573ffffffffffffffffffffffffffffffffffffffff1673ffffffffffffffffffffffffffffffffffffffff168152602001908152602001600020819055508015610a65578273ffffffffffffffffffffffffffffffffffffffff168473ffffffffffffffffffffffffffffffffffffffff167f8c5be1e5ebec7d5bd14f71427d1e84f3dd0314c0f7b2291e5b200ac8c7c3b92584604051610a5c9190610e60565b60405180910390a35b50505050565b600073ffffffffffffffffffffffffffffffffffffffff168373ffffffffffffffffffffffffffffffffffffffff1603610abd578060026000828254610ab19190611062565b92505081905550610b90565b60008060008573ffffffffffffffffffffffffffffffffffffffff1673ffffffffffffffffffffffffffffffffffffffff16815260200190815260200160002054905081811015610b49578381836040517fe450d38c000000000000000000000000000000000000000000000000000000008152600401610b4093929190610ffc565b60405180910390fd5b8181036000808673ffffffffffffffffffffffffffffffffffffffff1673ffffffffffffffffffffffffffffffffffffffff16815260200190815260200160002081905550505b600073ffffffffffffffffffffffffffffffffffffffff168273ffffffffffffffffffffffffffffffffffffffff1603610bd95780600260008282540392505081905550610c26565b806000808473ffffffffffffffffffffffffffffffffffffffff1673ffffffffffffffffffffffffffffffffffffffff168152602001908152602001600020600082825401925050819055505b8173ffffffffffffffffffffffffffffffffffffffff168373ffffffffffffffffffffffffffffffffffffffff167fddf252ad1be2c89b69c2b068fc378daa952ba7f163c4a11628f55a4df523b3ef83604051610c839190610e60565b60405180910390a3505050565b600081519050919050565b600082825260208201905092915050565b60005b83811015610cca578082015181840152602081019050610caf565b60008484015250505050565b6000601f19601f8301169050919050565b6000610cf282610c90565b610cfc8185610c9b565b9350610d0c818560208601610cac565b610d1581610cd6565b840191505092915050565b60006020820190508181036000830152610d3a8184610ce7565b905092915050565b600080fd5b600073ffffffffffffffffffffffffffffffffffffffff82169050919050565b6000610d7282610d47565b9050919050565b610d8281610d67565b8114610d8d57600080fd5b50565b600081359050610d9f81610d79565b92915050565b6000819050919050565b610db881610da5565b8114610dc357600080fd5b50565b600081359050610dd581610daf565b92915050565b60008060408385031215610df257610df1610d42565b5b6000610e0085828601610d90565b9250506020610e1185828601610dc6565b9150509250929050565b60008115159050919050565b610e3081610e1b565b82525050565b6000602082019050610e4b6000830184610e27565b92915050565b610e5a81610da5565b82525050565b6000602082019050610e756000830184610e51565b92915050565b600080600060608486031215610e9457610e93610d42565b5b6000610ea286828701610d90565b9350506020610eb386828701610d90565b9250506040610ec486828701610dc6565b9150509250925092565b600060ff82169050919050565b610ee481610ece565b82525050565b6000602082019050610eff6000830184610edb565b92915050565b600060208284031215610f1b57610f1a610d42565b5b6000610f2984828501610d90565b91505092915050565b610f3b81610d67565b82525050565b6000602082019050610f566000830184610f32565b92915050565b60008060408385031215610f7357610f72610d42565b5b6000610f8185828601610d90565b9250506020610f9285828601610d90565b9150509250929050565b7f4e487b7100000000000000000000000000000000000000000000000000000000600052602260045260246000fd5b60006002820490506001821680610fe357607f821691505b602082108103610ff657610ff5610f9c565b5b50919050565b60006060820190506110116000830186610f32565b61101e6020830185610e51565b61102b6040830184610e51565b949350505050565b7f4e487b7100000000000000000000000000000000000000000000000000000000600052601160045260246000fd5b600061106d82610da5565b915061107883610da5565b92508282019050808211156110905761108f611033565b5b9291505056fea2646970667358221220565cd71029c23110defe98c9ce37ef5a9175ee099f823a99918d65b4f963f41264736f6c634300081c0033a2646970667358221220b3169c0b35597526af81ae9f8310c70434e472556913443ebca147ff8f22ad5164736f6c634300081c0033",
    "linkReferences": {},
    "deployedLinkReferences": {}
}